{
  "_format": "hh-sol-artifact-1",
  "contractName": "Betting",
  "sourceName": "contracts/Betting.sol",
  "abi": [
    {
      "inputs": [],
      "stateMutability": "nonpayable",
      "type": "constructor"
    },
    {
      "inputs": [],
      "name": "deposit",
      "outputs": [],
      "stateMutability": "payable",
      "type": "function"
    },
    {
      "inputs": [],
      "name": "getBalance",
      "outputs": [
        {
          "internalType": "uint256",
          "name": "",
          "type": "uint256"
        }
      ],
      "stateMutability": "view",
      "type": "function"
    },
    {
      "inputs": [],
      "name": "owner",
      "outputs": [
        {
          "internalType": "address",
          "name": "",
          "type": "address"
        }
      ],
      "stateMutability": "view",
      "type": "function"
    },
    {
      "inputs": [],
      "name": "pickWinner",
      "outputs": [],
      "stateMutability": "nonpayable",
      "type": "function"
    },
    {
      "inputs": [
        {
          "internalType": "uint256",
          "name": "",
          "type": "uint256"
        }
      ],
      "name": "players",
      "outputs": [
        {
          "internalType": "address payable",
          "name": "",
          "type": "address"
        }
      ],
      "stateMutability": "view",
      "type": "function"
    },
    {
      "inputs": [],
      "name": "totalPlayers",
      "outputs": [
        {
          "internalType": "uint256",
          "name": "count",
          "type": "uint256"
        }
      ],
      "stateMutability": "view",
      "type": "function"
    }
  ],
  "bytecode": "0x608060405234801561001057600080fd5b5033600160006101000a81548173ffffffffffffffffffffffffffffffffffffffff021916908373ffffffffffffffffffffffffffffffffffffffff1602179055506109b7806100616000396000f3fe6080604052600436106100555760003560e01c806312065fe01461005a5780635d495aea146100855780638da5cb5b1461009c578063d0e30db0146100c7578063f60cdcf6146100d1578063f71d96cb146100fc575b600080fd5b34801561006657600080fd5b5061006f610139565b60405161007c9190610628565b60405180910390f35b34801561009157600080fd5b5061009a6101d1565b005b3480156100a857600080fd5b506100b1610393565b6040516100be9190610684565b60405180910390f35b6100cf6103b9565b005b3480156100dd57600080fd5b506100e661041e565b6040516100f39190610628565b60405180910390f35b34801561010857600080fd5b50610123600480360381019061011e91906106d0565b61042a565b604051610130919061071e565b60405180910390f35b6000600160009054906101000a900473ffffffffffffffffffffffffffffffffffffffff1673ffffffffffffffffffffffffffffffffffffffff163373ffffffffffffffffffffffffffffffffffffffff16146101cb576040517f08c379a00000000000000000000000000000000000000000000000000000000081526004016101c290610796565b60405180910390fd5b47905090565b600160009054906101000a900473ffffffffffffffffffffffffffffffffffffffff1673ffffffffffffffffffffffffffffffffffffffff163373ffffffffffffffffffffffffffffffffffffffff161461022b57600080fd5b6002600080549050101561023e57600080fd5b6000610248610469565b90506000806000805490508361025e91906107e5565b90506000818154811061027457610273610816565b5b9060005260206000200160009054906101000a900473ffffffffffffffffffffffffffffffffffffffff1691506102e06040518060400160405280600f81526020017f5468652077696e6e6572206973203a0000000000000000000000000000000000815250836104a3565b8173ffffffffffffffffffffffffffffffffffffffff166108fc610302610139565b9081150290604051600060405180830381858888f1935050505015801561032d573d6000803e3d6000fd5b50600067ffffffffffffffff81111561034957610348610845565b5b6040519080825280602002602001820160405280156103775781602001602082028036833780820191505090505b506000908051906020019061038d929190610568565b50505050565b600160009054906101000a900473ffffffffffffffffffffffffffffffffffffffff1681565b6000339080600181540180825580915050600190039060005260206000200160009091909190916101000a81548173ffffffffffffffffffffffffffffffffffffffff021916908373ffffffffffffffffffffffffffffffffffffffff160217905550565b60008080549050905090565b6000818154811061043a57600080fd5b906000526020600020016000915054906101000a900473ffffffffffffffffffffffffffffffffffffffff1681565b6000444260008054905060405160200161048593929190610895565b6040516020818303038152906040528051906020012060001c905090565b61053b82826040516024016104b9929190610951565b6040516020818303038152906040527f319af333000000000000000000000000000000000000000000000000000000007bffffffffffffffffffffffffffffffffffffffffffffffffffffffff19166020820180517bffffffffffffffffffffffffffffffffffffffffffffffffffffffff838183161783525050505061053f565b5050565b60008151905060006a636f6e736f6c652e6c6f679050602083016000808483855afa5050505050565b8280548282559060005260206000209081019282156105e1579160200282015b828111156105e05782518260006101000a81548173ffffffffffffffffffffffffffffffffffffffff021916908373ffffffffffffffffffffffffffffffffffffffff16021790555091602001919060010190610588565b5b5090506105ee91906105f2565b5090565b5b8082111561060b5760008160009055506001016105f3565b5090565b6000819050919050565b6106228161060f565b82525050565b600060208201905061063d6000830184610619565b92915050565b600073ffffffffffffffffffffffffffffffffffffffff82169050919050565b600061066e82610643565b9050919050565b61067e81610663565b82525050565b60006020820190506106996000830184610675565b92915050565b600080fd5b6106ad8161060f565b81146106b857600080fd5b50565b6000813590506106ca816106a4565b92915050565b6000602082840312156106e6576106e561069f565b5b60006106f4848285016106bb565b91505092915050565b600061070882610643565b9050919050565b610718816106fd565b82525050565b6000602082019050610733600083018461070f565b92915050565b600082825260208201905092915050565b7f596f7520617265206e6f7420746865206f776e65720000000000000000000000600082015250565b6000610780601583610739565b915061078b8261074a565b602082019050919050565b600060208201905081810360008301526107af81610773565b9050919050565b7f4e487b7100000000000000000000000000000000000000000000000000000000600052601260045260246000fd5b60006107f08261060f565b91506107fb8361060f565b92508261080b5761080a6107b6565b5b828206905092915050565b7f4e487b7100000000000000000000000000000000000000000000000000000000600052603260045260246000fd5b7f4e487b7100000000000000000000000000000000000000000000000000000000600052604160045260246000fd5b6000819050919050565b61088f61088a8261060f565b610874565b82525050565b60006108a1828661087e565b6020820191506108b1828561087e565b6020820191506108c1828461087e565b602082019150819050949350505050565b600081519050919050565b60005b838110156108fb5780820151818401526020810190506108e0565b60008484015250505050565b6000601f19601f8301169050919050565b6000610923826108d2565b61092d8185610739565b935061093d8185602086016108dd565b61094681610907565b840191505092915050565b6000604082019050818103600083015261096b8185610918565b905061097a6020830184610675565b939250505056fea264697066735822122045995335912d6eb18a11c16429c7b90a9e948dc595bb2bf91684d2c04e87f4ad64736f6c63430008110033",
  "linkReferences": {},
  "deployedLinkReferences": {}
}