{
  "_format": "hh-sol-artifact-1",
  "contractName": "Betting",
  "sourceName": "contracts/Betting.sol",
  "abi": [
    {
      "inputs": [],
      "stateMutability": "nonpayable",
      "type": "constructor"
    },
    {
      "inputs": [],
      "name": "deposit",
      "outputs": [],
      "stateMutability": "payable",
      "type": "function"
    },
    {
      "inputs": [],
      "name": "getBalance",
      "outputs": [
        {
          "internalType": "uint256",
          "name": "",
          "type": "uint256"
        }
      ],
      "stateMutability": "view",
      "type": "function"
    },
    {
      "inputs": [],
      "name": "owner",
      "outputs": [
        {
          "internalType": "address",
          "name": "",
          "type": "address"
        }
      ],
      "stateMutability": "view",
      "type": "function"
    },
    {
      "inputs": [],
      "name": "pickWinner",
      "outputs": [
        {
          "internalType": "address",
          "name": "player",
          "type": "address"
        },
        {
          "internalType": "uint256",
          "name": "amt",
          "type": "uint256"
        }
      ],
      "stateMutability": "view",
      "type": "function"
    },
    {
      "inputs": [
        {
          "internalType": "uint256",
          "name": "",
          "type": "uint256"
        }
      ],
      "name": "players",
      "outputs": [
        {
          "internalType": "address payable",
          "name": "",
          "type": "address"
        }
      ],
      "stateMutability": "view",
      "type": "function"
    },
    {
      "inputs": [],
      "name": "totalPlayers",
      "outputs": [
        {
          "internalType": "uint256",
          "name": "count",
          "type": "uint256"
        }
      ],
      "stateMutability": "view",
      "type": "function"
    },
    {
      "inputs": [
        {
          "internalType": "address payable",
          "name": "player",
          "type": "address"
        },
        {
          "internalType": "uint256",
          "name": "amt",
          "type": "uint256"
        }
      ],
      "name": "transferPrize",
      "outputs": [],
      "stateMutability": "nonpayable",
      "type": "function"
    }
  ],
  "bytecode": "0x608060405234801561001057600080fd5b5033600160006101000a81548173ffffffffffffffffffffffffffffffffffffffff021916908373ffffffffffffffffffffffffffffffffffffffff160217905550610aba806100616000396000f3fe6080604052600436106100705760003560e01c80638da5cb5b1161004e5780638da5cb5b146100f5578063d0e30db014610120578063f60cdcf61461012a578063f71d96cb1461015557610070565b806312065fe0146100755780632d88b79c146100a05780635d495aea146100c9575b600080fd5b34801561008157600080fd5b5061008a610192565b6040516100979190610696565b60405180910390f35b3480156100ac57600080fd5b506100c760048036038101906100c29190610740565b61022a565b005b3480156100d557600080fd5b506100de6102d5565b6040516100ec9291906107a1565b60405180910390f35b34801561010157600080fd5b5061010a610401565b60405161011791906107ca565b60405180910390f35b610128610427565b005b34801561013657600080fd5b5061013f61048c565b60405161014c9190610696565b60405180910390f35b34801561016157600080fd5b5061017c600480360381019061017791906107e5565b610498565b6040516101899190610821565b60405180910390f35b6000600160009054906101000a900473ffffffffffffffffffffffffffffffffffffffff1673ffffffffffffffffffffffffffffffffffffffff163373ffffffffffffffffffffffffffffffffffffffff1614610224576040517f08c379a000000000000000000000000000000000000000000000000000000000815260040161021b90610899565b60405180910390fd5b47905090565b8173ffffffffffffffffffffffffffffffffffffffff166108fc829081150290604051600060405180830381858888f19350505050158015610270573d6000803e3d6000fd5b50600067ffffffffffffffff81111561028c5761028b6108b9565b5b6040519080825280602002602001820160405280156102ba5781602001602082028036833780820191505090505b50600090805190602001906102d09291906105d6565b505050565b600080600160009054906101000a900473ffffffffffffffffffffffffffffffffffffffff1673ffffffffffffffffffffffffffffffffffffffff163373ffffffffffffffffffffffffffffffffffffffff161461033257600080fd5b6002600080549050101561034557600080fd5b600061034f610192565b9050600061035b6104d7565b9050600080600080549050836103719190610917565b90506000818154811061038757610386610948565b5b9060005260206000200160009054906101000a900473ffffffffffffffffffffffffffffffffffffffff1691506103f36040518060400160405280600f81526020017f5468652077696e6e6572206973203a000000000000000000000000000000000081525083610511565b818495509550505050509091565b600160009054906101000a900473ffffffffffffffffffffffffffffffffffffffff1681565b6000339080600181540180825580915050600190039060005260206000200160009091909190916101000a81548173ffffffffffffffffffffffffffffffffffffffff021916908373ffffffffffffffffffffffffffffffffffffffff160217905550565b60008080549050905090565b600081815481106104a857600080fd5b906000526020600020016000915054906101000a900473ffffffffffffffffffffffffffffffffffffffff1681565b600044426000805490506040516020016104f393929190610998565b6040516020818303038152906040528051906020012060001c905090565b6105a98282604051602401610527929190610a54565b6040516020818303038152906040527f319af333000000000000000000000000000000000000000000000000000000007bffffffffffffffffffffffffffffffffffffffffffffffffffffffff19166020820180517bffffffffffffffffffffffffffffffffffffffffffffffffffffffff83818316178352505050506105ad565b5050565b60008151905060006a636f6e736f6c652e6c6f679050602083016000808483855afa5050505050565b82805482825590600052602060002090810192821561064f579160200282015b8281111561064e5782518260006101000a81548173ffffffffffffffffffffffffffffffffffffffff021916908373ffffffffffffffffffffffffffffffffffffffff160217905550916020019190600101906105f6565b5b50905061065c9190610660565b5090565b5b80821115610679576000816000905550600101610661565b5090565b6000819050919050565b6106908161067d565b82525050565b60006020820190506106ab6000830184610687565b92915050565b600080fd5b600073ffffffffffffffffffffffffffffffffffffffff82169050919050565b60006106e1826106b6565b9050919050565b6106f1816106d6565b81146106fc57600080fd5b50565b60008135905061070e816106e8565b92915050565b61071d8161067d565b811461072857600080fd5b50565b60008135905061073a81610714565b92915050565b60008060408385031215610757576107566106b1565b5b6000610765858286016106ff565b92505060206107768582860161072b565b9150509250929050565b600061078b826106b6565b9050919050565b61079b81610780565b82525050565b60006040820190506107b66000830185610792565b6107c36020830184610687565b9392505050565b60006020820190506107df6000830184610792565b92915050565b6000602082840312156107fb576107fa6106b1565b5b60006108098482850161072b565b91505092915050565b61081b816106d6565b82525050565b60006020820190506108366000830184610812565b92915050565b600082825260208201905092915050565b7f596f7520617265206e6f7420746865206f776e65720000000000000000000000600082015250565b600061088360158361083c565b915061088e8261084d565b602082019050919050565b600060208201905081810360008301526108b281610876565b9050919050565b7f4e487b7100000000000000000000000000000000000000000000000000000000600052604160045260246000fd5b7f4e487b7100000000000000000000000000000000000000000000000000000000600052601260045260246000fd5b60006109228261067d565b915061092d8361067d565b92508261093d5761093c6108e8565b5b828206905092915050565b7f4e487b7100000000000000000000000000000000000000000000000000000000600052603260045260246000fd5b6000819050919050565b61099261098d8261067d565b610977565b82525050565b60006109a48286610981565b6020820191506109b48285610981565b6020820191506109c48284610981565b602082019150819050949350505050565b600081519050919050565b60005b838110156109fe5780820151818401526020810190506109e3565b60008484015250505050565b6000601f19601f8301169050919050565b6000610a26826109d5565b610a30818561083c565b9350610a408185602086016109e0565b610a4981610a0a565b840191505092915050565b60006040820190508181036000830152610a6e8185610a1b565b9050610a7d6020830184610792565b939250505056fea2646970667358221220da0e836edb7d603bfeec18c132996b813dd6cc86e1729614500a5f0d225e3c0364736f6c63430008110033",
  "linkReferences": {},
  "deployedLinkReferences": {}
}