{
  "_format": "hh-sol-artifact-1",
  "contractName": "Betting",
  "sourceName": "contracts/Betting.sol",
  "abi": [
    {
      "inputs": [],
      "stateMutability": "nonpayable",
      "type": "constructor"
    },
    {
      "inputs": [],
      "name": "getAllTransactions",
      "outputs": [
        {
          "components": [
            {
              "internalType": "address payable",
              "name": "playeradd",
              "type": "address"
            },
            {
              "internalType": "string",
              "name": "playerName",
              "type": "string"
            },
            {
              "internalType": "uint256",
              "name": "amount",
              "type": "uint256"
            }
          ],
          "internalType": "struct Betting.LogDetails[]",
          "name": "",
          "type": "tuple[]"
        }
      ],
      "stateMutability": "view",
      "type": "function"
    },
    {
      "inputs": [],
      "name": "getBalance",
      "outputs": [
        {
          "internalType": "uint256",
          "name": "",
          "type": "uint256"
        }
      ],
      "stateMutability": "view",
      "type": "function"
    },
    {
      "inputs": [
        {
          "internalType": "string",
          "name": "playerName",
          "type": "string"
        }
      ],
      "name": "mydeposit",
      "outputs": [],
      "stateMutability": "payable",
      "type": "function"
    },
    {
      "inputs": [],
      "name": "owner",
      "outputs": [
        {
          "internalType": "address",
          "name": "",
          "type": "address"
        }
      ],
      "stateMutability": "view",
      "type": "function"
    },
    {
      "inputs": [
        {
          "internalType": "uint256",
          "name": "rand",
          "type": "uint256"
        }
      ],
      "name": "pickWinner",
      "outputs": [
        {
          "internalType": "address",
          "name": "player",
          "type": "address"
        },
        {
          "internalType": "uint256",
          "name": "amt",
          "type": "uint256"
        }
      ],
      "stateMutability": "view",
      "type": "function"
    },
    {
      "inputs": [],
      "name": "totalPlayers",
      "outputs": [
        {
          "internalType": "uint256",
          "name": "count",
          "type": "uint256"
        }
      ],
      "stateMutability": "view",
      "type": "function"
    },
    {
      "inputs": [
        {
          "internalType": "address payable",
          "name": "particip",
          "type": "address"
        },
        {
          "internalType": "uint256",
          "name": "amt",
          "type": "uint256"
        }
      ],
      "name": "transferPrize",
      "outputs": [],
      "stateMutability": "nonpayable",
      "type": "function"
    }
  ],
  "bytecode": "0x608060405234801561001057600080fd5b50336000806101000a81548173ffffffffffffffffffffffffffffffffffffffff021916908373ffffffffffffffffffffffffffffffffffffffff160217905550610f51806100606000396000f3fe6080604052600436106100705760003560e01c80638da5cb5b1161004e5780638da5cb5b146100f4578063c6f3a3731461011f578063f60cdcf61461013b578063f737d21d1461016657610070565b806312065fe01461007557806327506f53146100a05780632d88b79c146100cb575b600080fd5b34801561008157600080fd5b5061008a6101a4565b60405161009791906106a9565b60405180910390f35b3480156100ac57600080fd5b506100b56101ac565b6040516100c291906108b6565b60405180910390f35b3480156100d757600080fd5b506100f260048036038101906100ed9190610944565b6102fd565b005b34801561010057600080fd5b50610109610356565b60405161011691906109a5565b60405180910390f35b61013960048036038101906101349190610af5565b61037a565b005b34801561014757600080fd5b50610150610442565b60405161015d91906106a9565b60405180910390f35b34801561017257600080fd5b5061018d60048036038101906101889190610b3e565b61044f565b60405161019b929190610b6b565b60405180910390f35b600047905090565b60606001805480602002602001604051908101604052809291908181526020016000905b828210156102f457838290600052602060002090600302016040518060600160405290816000820160009054906101000a900473ffffffffffffffffffffffffffffffffffffffff1673ffffffffffffffffffffffffffffffffffffffff1673ffffffffffffffffffffffffffffffffffffffff16815260200160018201805461025990610bc3565b80601f016020809104026020016040519081016040528092919081815260200182805461028590610bc3565b80156102d25780601f106102a7576101008083540402835291602001916102d2565b820191906000526020600020905b8154815290600101906020018083116102b557829003601f168201915b50505050508152602001600282015481525050815260200190600101906101d0565b50505050905090565b8173ffffffffffffffffffffffffffffffffffffffff166108fc829081150290604051600060405180830381858888f19350505050158015610343573d6000803e3d6000fd5b506001600061035291906105b9565b5050565b60008054906101000a900473ffffffffffffffffffffffffffffffffffffffff1681565b600160405180606001604052803373ffffffffffffffffffffffffffffffffffffffff16815260200183815260200134815250908060018154018082558091505060019003906000526020600020906003020160009091909190915060008201518160000160006101000a81548173ffffffffffffffffffffffffffffffffffffffff021916908373ffffffffffffffffffffffffffffffffffffffff16021790555060208201518160010190816104329190610da0565b5060408201518160020155505050565b6000600180549050905090565b600080600061045c6101a4565b905060006001858154811061047457610473610e72565b5b906000526020600020906003020160000160009054906101000a900473ffffffffffffffffffffffffffffffffffffffff1690506104e76040518060400160405280600f81526020017f5468652077696e6e6572206973203a0000000000000000000000000000000000815250826104f4565b8082935093505050915091565b61058c828260405160240161050a929190610eeb565b6040516020818303038152906040527f319af333000000000000000000000000000000000000000000000000000000007bffffffffffffffffffffffffffffffffffffffffffffffffffffffff19166020820180517bffffffffffffffffffffffffffffffffffffffffffffffffffffffff8381831617835250505050610590565b5050565b60008151905060006a636f6e736f6c652e6c6f679050602083016000808483855afa5050505050565b50805460008255600302906000526020600020908101906105da91906105dd565b50565b5b8082111561062f57600080820160006101000a81549073ffffffffffffffffffffffffffffffffffffffff021916905560018201600061061e9190610633565b6002820160009055506003016105de565b5090565b50805461063f90610bc3565b6000825580601f106106515750610670565b601f01602090049060005260206000209081019061066f9190610673565b5b50565b5b8082111561068c576000816000905550600101610674565b5090565b6000819050919050565b6106a381610690565b82525050565b60006020820190506106be600083018461069a565b92915050565b600081519050919050565b600082825260208201905092915050565b6000819050602082019050919050565b600073ffffffffffffffffffffffffffffffffffffffff82169050919050565b600061071b826106f0565b9050919050565b61072b81610710565b82525050565b600081519050919050565b600082825260208201905092915050565b60005b8381101561076b578082015181840152602081019050610750565b60008484015250505050565b6000601f19601f8301169050919050565b600061079382610731565b61079d818561073c565b93506107ad81856020860161074d565b6107b681610777565b840191505092915050565b6107ca81610690565b82525050565b60006060830160008301516107e86000860182610722565b50602083015184820360208601526108008282610788565b915050604083015161081560408601826107c1565b508091505092915050565b600061082c83836107d0565b905092915050565b6000602082019050919050565b600061084c826106c4565b61085681856106cf565b935083602082028501610868856106e0565b8060005b858110156108a457848403895281516108858582610820565b945061089083610834565b925060208a0199505060018101905061086c565b50829750879550505050505092915050565b600060208201905081810360008301526108d08184610841565b905092915050565b6000604051905090565b600080fd5b600080fd5b6108f581610710565b811461090057600080fd5b50565b600081359050610912816108ec565b92915050565b61092181610690565b811461092c57600080fd5b50565b60008135905061093e81610918565b92915050565b6000806040838503121561095b5761095a6108e2565b5b600061096985828601610903565b925050602061097a8582860161092f565b9150509250929050565b600061098f826106f0565b9050919050565b61099f81610984565b82525050565b60006020820190506109ba6000830184610996565b92915050565b600080fd5b600080fd5b7f4e487b7100000000000000000000000000000000000000000000000000000000600052604160045260246000fd5b610a0282610777565b810181811067ffffffffffffffff82111715610a2157610a206109ca565b5b80604052505050565b6000610a346108d8565b9050610a4082826109f9565b919050565b600067ffffffffffffffff821115610a6057610a5f6109ca565b5b610a6982610777565b9050602081019050919050565b82818337600083830152505050565b6000610a98610a9384610a45565b610a2a565b905082815260208101848484011115610ab457610ab36109c5565b5b610abf848285610a76565b509392505050565b600082601f830112610adc57610adb6109c0565b5b8135610aec848260208601610a85565b91505092915050565b600060208284031215610b0b57610b0a6108e2565b5b600082013567ffffffffffffffff811115610b2957610b286108e7565b5b610b3584828501610ac7565b91505092915050565b600060208284031215610b5457610b536108e2565b5b6000610b628482850161092f565b91505092915050565b6000604082019050610b806000830185610996565b610b8d602083018461069a565b9392505050565b7f4e487b7100000000000000000000000000000000000000000000000000000000600052602260045260246000fd5b60006002820490506001821680610bdb57607f821691505b602082108103610bee57610bed610b94565b5b50919050565b60008190508160005260206000209050919050565b60006020601f8301049050919050565b600082821b905092915050565b600060088302610c567fffffffffffffffffffffffffffffffffffffffffffffffffffffffffffffffff82610c19565b610c608683610c19565b95508019841693508086168417925050509392505050565b6000819050919050565b6000610c9d610c98610c9384610690565b610c78565b610690565b9050919050565b6000819050919050565b610cb783610c82565b610ccb610cc382610ca4565b848454610c26565b825550505050565b600090565b610ce0610cd3565b610ceb818484610cae565b505050565b5b81811015610d0f57610d04600082610cd8565b600181019050610cf1565b5050565b601f821115610d5457610d2581610bf4565b610d2e84610c09565b81016020851015610d3d578190505b610d51610d4985610c09565b830182610cf0565b50505b505050565b600082821c905092915050565b6000610d7760001984600802610d59565b1980831691505092915050565b6000610d908383610d66565b9150826002028217905092915050565b610da982610731565b67ffffffffffffffff811115610dc257610dc16109ca565b5b610dcc8254610bc3565b610dd7828285610d13565b600060209050601f831160018114610e0a5760008415610df8578287015190505b610e028582610d84565b865550610e6a565b601f198416610e1886610bf4565b60005b82811015610e4057848901518255600182019150602085019450602081019050610e1b565b86831015610e5d5784890151610e59601f891682610d66565b8355505b6001600288020188555050505b505050505050565b7f4e487b7100000000000000000000000000000000000000000000000000000000600052603260045260246000fd5b600082825260208201905092915050565b6000610ebd82610731565b610ec78185610ea1565b9350610ed781856020860161074d565b610ee081610777565b840191505092915050565b60006040820190508181036000830152610f058185610eb2565b9050610f146020830184610996565b939250505056fea264697066735822122018372eff8ab1febbf705ddb653c3ed28c1191e1bdf0be48b75c8ec95d015344d64736f6c63430008110033",
  "linkReferences": {},
  "deployedLinkReferences": {}
}