{
  "_format": "hh-sol-artifact-1",
  "contractName": "Betting",
  "sourceName": "contracts/Betting.sol",
  "abi": [
    {
      "inputs": [],
      "stateMutability": "nonpayable",
      "type": "constructor"
    },
    {
      "inputs": [],
      "name": "deposit",
      "outputs": [],
      "stateMutability": "payable",
      "type": "function"
    },
    {
      "inputs": [],
      "name": "getBalance",
      "outputs": [
        {
          "internalType": "uint256",
          "name": "",
          "type": "uint256"
        }
      ],
      "stateMutability": "view",
      "type": "function"
    },
    {
      "inputs": [],
      "name": "owner",
      "outputs": [
        {
          "internalType": "address",
          "name": "",
          "type": "address"
        }
      ],
      "stateMutability": "view",
      "type": "function"
    },
    {
      "inputs": [],
      "name": "pickWinner",
      "outputs": [],
      "stateMutability": "nonpayable",
      "type": "function"
    },
    {
      "inputs": [
        {
          "internalType": "uint256",
          "name": "",
          "type": "uint256"
        }
      ],
      "name": "players",
      "outputs": [
        {
          "internalType": "address payable",
          "name": "",
          "type": "address"
        }
      ],
      "stateMutability": "view",
      "type": "function"
    }
  ],
  "bytecode": "0x608060405234801561001057600080fd5b5033600160006101000a81548173ffffffffffffffffffffffffffffffffffffffff021916908373ffffffffffffffffffffffffffffffffffffffff160217905550610975806100616000396000f3fe60806040526004361061004a5760003560e01c806312065fe01461004f5780635d495aea1461007a5780638da5cb5b14610091578063d0e30db0146100bc578063f71d96cb146100c6575b600080fd5b34801561005b57600080fd5b50610064610103565b60405161007191906105e6565b60405180910390f35b34801561008657600080fd5b5061008f61019b565b005b34801561009d57600080fd5b506100a661035d565b6040516100b39190610642565b60405180910390f35b6100c4610383565b005b3480156100d257600080fd5b506100ed60048036038101906100e8919061068e565b6103e8565b6040516100fa91906106dc565b60405180910390f35b6000600160009054906101000a900473ffffffffffffffffffffffffffffffffffffffff1673ffffffffffffffffffffffffffffffffffffffff163373ffffffffffffffffffffffffffffffffffffffff1614610195576040517f08c379a000000000000000000000000000000000000000000000000000000000815260040161018c90610754565b60405180910390fd5b47905090565b600160009054906101000a900473ffffffffffffffffffffffffffffffffffffffff1673ffffffffffffffffffffffffffffffffffffffff163373ffffffffffffffffffffffffffffffffffffffff16146101f557600080fd5b6002600080549050101561020857600080fd5b6000610212610427565b90506000806000805490508361022891906107a3565b90506000818154811061023e5761023d6107d4565b5b9060005260206000200160009054906101000a900473ffffffffffffffffffffffffffffffffffffffff1691506102aa6040518060400160405280600f81526020017f5468652077696e6e6572206973203a000000000000000000000000000000000081525083610461565b8173ffffffffffffffffffffffffffffffffffffffff166108fc6102cc610103565b9081150290604051600060405180830381858888f193505050501580156102f7573d6000803e3d6000fd5b50600067ffffffffffffffff81111561031357610312610803565b5b6040519080825280602002602001820160405280156103415781602001602082028036833780820191505090505b5060009080519060200190610357929190610526565b50505050565b600160009054906101000a900473ffffffffffffffffffffffffffffffffffffffff1681565b6000339080600181540180825580915050600190039060005260206000200160009091909190916101000a81548173ffffffffffffffffffffffffffffffffffffffff021916908373ffffffffffffffffffffffffffffffffffffffff160217905550565b600081815481106103f857600080fd5b906000526020600020016000915054906101000a900473ffffffffffffffffffffffffffffffffffffffff1681565b6000444260008054905060405160200161044393929190610853565b6040516020818303038152906040528051906020012060001c905090565b6104f9828260405160240161047792919061090f565b6040516020818303038152906040527f319af333000000000000000000000000000000000000000000000000000000007bffffffffffffffffffffffffffffffffffffffffffffffffffffffff19166020820180517bffffffffffffffffffffffffffffffffffffffffffffffffffffffff83818316178352505050506104fd565b5050565b60008151905060006a636f6e736f6c652e6c6f679050602083016000808483855afa5050505050565b82805482825590600052602060002090810192821561059f579160200282015b8281111561059e5782518260006101000a81548173ffffffffffffffffffffffffffffffffffffffff021916908373ffffffffffffffffffffffffffffffffffffffff16021790555091602001919060010190610546565b5b5090506105ac91906105b0565b5090565b5b808211156105c95760008160009055506001016105b1565b5090565b6000819050919050565b6105e0816105cd565b82525050565b60006020820190506105fb60008301846105d7565b92915050565b600073ffffffffffffffffffffffffffffffffffffffff82169050919050565b600061062c82610601565b9050919050565b61063c81610621565b82525050565b60006020820190506106576000830184610633565b92915050565b600080fd5b61066b816105cd565b811461067657600080fd5b50565b60008135905061068881610662565b92915050565b6000602082840312156106a4576106a361065d565b5b60006106b284828501610679565b91505092915050565b60006106c682610601565b9050919050565b6106d6816106bb565b82525050565b60006020820190506106f160008301846106cd565b92915050565b600082825260208201905092915050565b7f596f7520617265206e6f7420746865206f776e65720000000000000000000000600082015250565b600061073e6015836106f7565b915061074982610708565b602082019050919050565b6000602082019050818103600083015261076d81610731565b9050919050565b7f4e487b7100000000000000000000000000000000000000000000000000000000600052601260045260246000fd5b60006107ae826105cd565b91506107b9836105cd565b9250826107c9576107c8610774565b5b828206905092915050565b7f4e487b7100000000000000000000000000000000000000000000000000000000600052603260045260246000fd5b7f4e487b7100000000000000000000000000000000000000000000000000000000600052604160045260246000fd5b6000819050919050565b61084d610848826105cd565b610832565b82525050565b600061085f828661083c565b60208201915061086f828561083c565b60208201915061087f828461083c565b602082019150819050949350505050565b600081519050919050565b60005b838110156108b957808201518184015260208101905061089e565b60008484015250505050565b6000601f19601f8301169050919050565b60006108e182610890565b6108eb81856106f7565b93506108fb81856020860161089b565b610904816108c5565b840191505092915050565b6000604082019050818103600083015261092981856108d6565b90506109386020830184610633565b939250505056fea264697066735822122066250d85eba8fc99347d9e93039f7eb0779c058b420bda6894659c0a8c2c4daf64736f6c63430008110033",
  "linkReferences": {},
  "deployedLinkReferences": {}
}